:020000040800F2
:10000000E813002089010008450900084509000897
:100010004509000845090008450900084509000888
:100020004509000845090008450900084509000878
:100030004509000845090008450900084509000868
:100040004509000845090008450900084509000858
:100050004509000845090008450900084509000848
:100060004509000845090008450900084509000838
:100070004509000845090008450900084509000828
:100080004509000845090008450900084509000818
:100090004509000845090008450900084509000808
:1000A00045090008450900084509000845090008F8
:1000B00045090008450900084509000845090008E8
:1000C00045090008450900084509000845090008D8
:1000D00045090008450900084509000845090008C8
:1000E00045090008450900084509000845090008B8
:1000F00045090008450900084509000845090008A8
:100100004509000845090008450900084509000897
:100110004509000845090008450900084509000887
:100120004509000845090008450900084509000877
:100130004509000845090008450900084509000867
:100140004509000845090008450900084509000857
:100150004509000845090008450900084509000847
:100160004509000845090008450900084509000837
:100170004509000845090008450900084509000827
:10018000450900084509000808B500F027F800F007
:10019000B5F900F0ADF80C4B0C4A002193420AD39C
:1001A0000B4B0C4A0C498B4208D300F063FB00F068
:1001B000EDFC00F00BFD43F8041BEFE752F8040BD5
:1001C00043F8040BEFE700BF60000020EC0F0020B5
:1001D00000000020E8C300086000002013B5374A83
:1001E0003748136843F001031360364B00241C604A
:1001F000116821F0847121F480311160324901606D
:10020000116821F48021116030490C60116841F4BB
:10021000803111602E4901910199002948DC019A31
:100220002C49002A31DD0A682B4C42F080520A60CA
:10023000226842F4804222601A6822F0F0021A60BA
:100240001A6822F4604242F400421A601A6822F4EA
:10025000E05242F4A0521A60204A0260174A106825
:1002600040F08070106010688001FCD51C4A40F29C
:10027000036010601A6822F0030242F002021A6062
:100280001A6802F00C02082AFAD1164A136843F0E1
:100290000F031360144B1A681A600B68134A43F07B
:1002A00080530B60136843F01003136002B010BD5D
:1002B00011688C03B3D401990139ACE700380240CE
:1002C0000438024008380240103000240C38024044
:1002D000ECF70C004038024000700040193040023A
:1002E000003C02403038024034380240443802407A
:1002F0007047030913F00C0F0BD103F00F03064AEC
:1003000000F00F0052F82320012319B103FA00F086
:10031000906170471030F9E7C0B400082DE9F84F3C
:10032000050915F00C050446C0F3031840F0AD8034
:10033000574B53F8287000F44023B3F5002F00F01A
:100340000F0600F09180B3F5402F00F08F80B3F5D9
:10035000802F40F08D80C0F30021FFF7CAFF0123FA
:10036000EFF3108172B60322D7F800E04FEA460C93
:1003700002FA0CF22EEA020ED04303FA0CF242EA21
:100380000E02032B3A6075D004F44032B2F5803F80
:1003900072D0B2F5003F0CBF02220022D7F80CE069
:1003A00002FA0CF200EA0E0E42EA0E02022BFA608A
:1003B0000CBFC4F30332002214F0080F15BF4FF036
:1003C00024094FF02009A6F1080EB6464FEA8E0E1A
:1003D00059F807A04FF00F0B0BFA0EFB02FA0EF2C2
:1003E0002AEA0B0A03F1FF3E42EA0A02BEF1010FBC
:1003F00049F807200DD804F44065B5F5006F3DD0ED
:10040000B5F5406F3CD0A5F58069D9F1000545EB05
:100410000905BA6805FA0CF510400543BD600120D6
:10042000BEF1010F7A6800FA06F02BD8A50529D590
:100430000243012B7A6010D0E3050ED5154D04F070
:100440000C04B300625903F00C030F20984022EA19
:10045000000208FA03F31343635111F0010F00D1B6
:1004600062B60020BDE8F88F022379E7032377E71F
:100470002B4675E7002291E701228FE70225C8E7A6
:100480000325C6E722EA0002D3E76FF01500E9E78B
:10049000C0B4000808380140C0B2FFF73FBF0309ED
:1004A00013F00C0F0FD1094A03F00F0300F00F00F7
:1004B00052F823301A69012303FA00F0104214BFE6
:1004C0001846002070470020704700BFC0B40008E5
:1004D000034B01221A601A68D205FCD5704700BF91
:1004E00020380140034A13685B06FCD5024B1860B4
:1004F000704700BF001001400410014008B51022F1
:100500000021154800F010FA1448FFF707FF1448BF
:10051000FFF704FF134B14491A6822F400521A60C3
:100520000A6822F47D520A601A6822F4BB5222F053
:100530001C021A604A6822F4E06222F001024A605A
:100540000A4A40F2A11111601A6842F4005242F0C6
:100550000C021A6008BD00BF44380240097C090043
:100560000A7C09000C1001401010014008100140E5
:1005700010B5846C8186E26801F4D07322F4D072E5
:100580001343E360826C536901F0010123F001031E
:100590001943516110BD10B5EFF3108472B6FFF727
:1005A000E7FF14F0010F00D162B610BD10B5EFF3F4
:1005B000108472B641B1826CD368526903F4D0736F
:1005C00002F0010213430B800021FFF7D1FF14F06A
:1005D000010F00D162B610BD6FF018007047836A3A
:1005E0009A6C5068DA8E40EA02420A600022DA868B
:1005F000C0B2704710B5806AEFF3108472B6838E74
:1006000041B143F02001FFF7C6FF14F0010F00D104
:1006100062B610BD23F4907121F00101F3E7836A03
:100620009B6C1868C0F340107047836A9B6C5960DC
:100630007047836A9B6C1868C0F3C010704738B568
:100640000446806AEFF3108572B6838E61B143F081
:10065000800189B2FFF79FFF204602F093FA15F060
:10066000010F00D162B638BD23F080010904090CE6
:10067000FFF791FFF3E710B5846A94F8400000F0AB
:10068000FFF9002294F840001146BDE8104000F048
:1006900071BB38B5856A074995F840002A4600F0D5
:1006A00069FB044618B995F8400000F0FBF92046B4
:1006B00038BD00BFB906000838B514464FF4807540
:1006C000A26C13689BB29906E38616D5A18E8806A4
:1006D00013D5204602F08DFA0123E28E110606D5CD
:1006E000A28E120603D5204602F04CFA0123013DEA
:1006F00001D0002BE4D1002038BD13F00E031CBF45
:1007000053680023E9E738B5846A3B4BA26C9A42F0
:10071000054604D139481022002100F005F9E06CAB
:10072000FFF7FCFD206DFFF7F9FDA26C94F83B107C
:10073000136923F47D5309B143F400531361A26C90
:10074000D36823F4BE73D360A26C536923F4E063CF
:1007500023F001035361A96ACB6B886C5D084B6C75
:10076000B3FBF5F35D09C2683AD11D0903F00F032D
:10077000013342F400425B08C260886C43EA05130F
:10078000836022F4B05391F83920012A2FD143F429
:10079000C06391F83A00092802D0082802D10AB1B2
:1007A00043F480538A6CD3608A6C91F83B001369E0
:1007B00023F4405308B143F4005313618A6C536926
:1007C00023F440735361A26CD36843F4005343F0A5
:1007D0000C03D36000200123A08684F8383038BD94
:1007E00003F01F0301335B0822F40042C4E7022A2E
:1007F00008BF43F48063CCE7001001404438024056
:1008000070B5846A0546002684F838603146204673
:10081000FFF7CCFEAB6A9A6C0B4B9A4204D10B48A3
:100820003246102100F080F8A26CD36823F4005304
:1008300023F00C03D360E06CFFF72EFE206DBDE8C3
:100840007040FFF729BE00BF00100140443802404D
:100850000138052809D8064B53F8200030B190F82C
:100860003830002B08BF002070470020704700BFC1
:10087000F4B4000838B5074D002455F8040B10B146
:100880000021FFF793FE0134062CF6D1BDE8384075
:10089000014838E7F4B40008000000207FB5104993
:1008A0001048114D02F07BF80D49104802F077F81E
:1008B0000F49684602F07AFE0024012355F8041B14
:1008C00049B1CA783AB95E1C684630338DF80930B0
:1008D00002F065F833460134062CEFD104B070BD48
:1008E00000000020D0B40008F4B40008DDB4000813
:1008F000E8B4000813B504460DF106010948FFF7F6
:1009000055FE0A2C02D10D20FFF7ECFDE0B2FFF7F7
:10091000E9FDBDF806100348FFF73DFE204602B092
:1009200010BD00BF0000002010B5EFF3108472B6B8
:10093000036823EA01010A43026014F0010F00D1A9
:1009400062B610BDEFF305801EF0040F02D0EFF386
:1009500009818D466A4602F12002EFF310832DE9EA
:10096000FC4F69466C46DFF838D000F0F5F82146B8
:10097000884209D000F12C01B1E8F00F016821E9AB
:10098000F00FB0E8FC4F01E0B1E8FC4F1EF0040F9F
:100990000CBF81F3088881F3098883F310887047BE
:1009A000600A00200F2810B510DD1038441103EB49
:1009B000840303F1604303F561430B6000F01F0003
:1009C000012303FA00F01060002010BD0D4B0B60F6
:1009D000042803D14FF480331360F5E7052802D1D2
:1009E0004FF40033F8E7062802D14FF48023F3E7F1
:1009F0000F2803D1044B0B600123EDE74FF0FF30CC
:100A0000E3E700BF24ED00E010E000E0154A1649DE
:100A10004FF0FF3310B5136053609360134B144ACB
:100A20001A604FF080321A615A619A61A3F604533A
:100A30001B680133DB00013B11D20E4B0E49002431
:100A400022460B201C6000F095F90C492246032039
:100A500000F090F9F02383F3118862B610BD41F8DD
:100A6000042BE8E780E100E000E400E008ED00E0AE
:100A700000000008C00B0020250B0008CD0A00086C
:100A800013B5802301AA69460446FFF78BFF38B9E6
:100A9000DDE900310F2CD7BF1A6819608A431A604C
:100AA00002B010BD13B5002301AA69460446FFF742
:100AB00079FF38B9DDE900310F2CD7BF1A6819600A
:100AC0000A431A6002B010BD704700BF38B54B6CC6
:100AD0000E4D9C1EAC420BD30D4DAC4208D233F8E8
:100AE000023CB3F55F4F03D1BDE8384000F01AB8BF
:100AF000EFF3108372B6074B07491B68074A0020C3
:100B000002F08CFD0648872102F0A8F800000008DA
:100B1000E0C300082CED00E03CB5000874B5000807
:100B20005CB50008CB6A012B10B50C4608D0022B2F
:100B30000AD01BB9086B4C2202F055FD002010BDF5
:100B40000A6B044B1A60F9E74C22086B02F04BFD6C
:100B5000626BF6E7C00B0020F8B50B4C054604208D
:100B60000E4600F01BF8284627682660FFF7ACFF0A
:100B70003146284600F01EF925682760042000F061
:100B80001BF82846F8BD00BFC00B002000F000B8DD
:100B90000148FFF7C3BB00BF2D090500012805DC94
:100BA000002805DB03480021FFF7A3BB0728F9D085
:100BB000704700BF2D090500072803D10248012115
:100BC000FFF797BB704700BF2D090500484D494A04
:100BD000494E01232B70002383B513605360474AAD
:100BE00013605360464A13605360464A1360536073
:100BF000454A13605360454A13605360444A13608A
:100C00005360444A338011461F464FF6FF7001334C
:100C1000102B1760908002F10802F8D133883E4C07
:100C2000328803F00F03204641F8334001EBC30143
:100C30008A80D422002102F0B1FC3388A381374B93
:100C40002C49C4E904330623A383354B0326C4E9A6
:100C50003537204604F1D403C4F8D030A67602F02C
:100C6000CCF8304B20461C6003F00CFA022301A99B
:100C700068462B7003F006F8DDE9000102F034FD50
:100C80002E7006F04CFC284B0BB100F0BFFB274B3D
:100C90000BB101F081FB264B0BB101F00FFC254B92
:100CA0000BB1AFF30080244B0BB101F003F9234BE0
:100CB0000BB1AFF3008003F0D5F904232B7007F0DC
:100CC0004BFF217F144800F00BFB134800F060FB42
:100CD000114800F02EFBA36801221A7101F0BCFF3D
:100CE00005232B7000F02CF803F006F8FCE700BF9A
:100CF0007E0C0020D40B00207C0C0020740C002003
:100D0000CC0B0020EC0B0020DC0B0020C40B0020DF
:100D1000E40B0020F40B0020600A0020CD0B00083B
:100D200084B50008800C00200D14000899230008E9
:100D3000BD24000800000000B51E000800000000EF
:100D400013B5012200240749074800F03FFA074B7A
:100D500000944FF400626421054800F07CF82046BE
:100D600002B010BDD8B5000879C3000835430008AB
:100D7000DAB50008612870B505460C4613D8EFF3C4
:100D8000108672B619B9FFF77BFE2246074C084859
:100D900040F8354000EBC500426016F0010F00D16D
:100DA00062B6002070BD6FF01500FBE7F10D000882
:100DB000840C0020612808B50CD8094A52F830305C
:100DC0005BB102EBC00252689847064B1A68064BAB
:100DD0001A6008BD0022054BF6E71A46FBE700BF84
:100DE000840C0020D40B0020800C0020F10D0008A2
:100DF00008B5EFF3108372B60148322101F02EFFDF
:100E0000DFB500082DE9FF410446D4208846164688
:100E10001F4602F085FC0546D0B10B9BA0F81C8054
:100E200002930A9B2146CDE900733246002300F06D
:100E300039F8041E06DA284602F05EFC204604B0AB
:100E4000BDE8F0812846B5F90C4000F07DF9F5E7E2
:100E50006FF00B04F2E713B5049CCDE900341346A0
:100E60000A460021FFF7CEFF02B010BD13B5049C67
:100E70000094FFF7F0FF041E05DA01F0F5FE64426E
:100E800004604FF0FF34204602B010BD13B5049C3F
:100E9000CDE9003413460A460221FFF7B3FF02B042
:100EA00010BD00002DE9F347067FDDF828A0884635
:100EB0003146054691461F4600F012FA041E28DB13
:100EC000284600F085FA041E06F003061DDB27B352
:100ED00052463946284603F0E1F9041E16DB182174
:100EE0002846AC6803F09EF918220021206202F027
:100EF00055FB284600F084FA0B9B174A009649469A
:100F0000284600F099F8041E16DA6FB1284600F062
:100F100018FA204602B0BDE8F0873246514628460E
:100F200003F064F8041EDADA2B6C002BEED03146A5
:100F3000284603F0F9F8E9E70C9A4146284600F004
:100F4000A8F8284600F0F5F904460028E1D0034946
:100F5000284601F05DFFD8E761110008E40B00208E
:100F600010B50446054901F053FF217F204601F0EA
:100F70000301BDE8104000F091BA00BFE40B00206F
:100F8000F0B50146EFF3108772B6124D124A1024E5
:100F90004FF0010C2B8801331BB2002B2B80D8BFE4
:100FA000012303F00F06D8BFA5F800C052F83600A1
:100FB00050B942F8361002EBC60293808B8117F0CD
:100FC000010F00D162B6F0BD013CE3D14FF0FF301C
:100FD000F5E700BF7C0C0020F40B002010B50446A0
:100FE000C4E904239DF80800A38B00F0030023F05C
:100FF0006303034343F02003C9B2A383142304F122
:101000004C022176617663620021032000F0C8FA69
:101010000023A376204603F035F800F069FA204655
:10102000044901F0EAFE0423A376BDE8104000F075
:101030006DBA00BFE40B00202DE9F34105460E46D2
:1010400017469846FFF79CFF044640B99DF82030AC
:1010500000933A46434631462846FFF7BFFF2046F5
:1010600002B0BDE8F0812DE9F34105460E46174672
:101070009846FFF785FF044638B9012300933A46A6
:10108000434631462846FFF7A9FF204602B0BDE897
:10109000F0812DE9F84F80462A48144602F08EFA76
:1010A000461C2CBB2546023506EB8501404603F065
:1010B000B9F8AF000646002841D000EB0709C0F898
:1010C0000090204802F07AFA1E490546484602F090
:1010D0006DFA0135083F4D44B346043C3744BB45E7
:1010E0001BD1002049F8040CC8F8D060BDE8F88F87
:1010F000002540F2011754F825000028D3D002F053
:101100005DFAD8F83C30013006449E4214D20135D5
:10111000BD42F0D16FF00600E8E74BF8045F54F8E9
:10112000040F02F04BFA8246216828460AF1010AB0
:1011300002F03CFA5544D2E76FF05A00D6E76FF060
:101140000B00D3E7F7B5000810B5EFF3108472B6C3
:1011500003F07CF814F0010F00D162B610BD00005E
:1011600010B50F4B1B68D3F8D020012040F20114BA
:1011700052F8201049B95C699B8B03F00303022BE2
:1011800008D11146A04700F010F80130A042EFD17D
:101190000120F8E70146204601F048FEF8E700BFCD
:1011A000D40B002008B502F04BFF08B5064B1D68B4
:1011B000C4B2284600F054F928460022214600F027
:1011C00021FC204602F03CFFD40B0020F8B50E466F
:1011D0001446054600284BD009B10B782BB9A4B1B1
:1011E0002846BDE8F84000F049B800F081F9214BED
:1011F0001B689F68BB6B6BB12946384600F080FCCA
:10120000014638B11CB900F081F92046F8BD3846D6
:1012100000F092FC284602F0D1F90446304602F074
:10122000CDF90444B86B023498B1796B0C44214673
:1012300002F06EFA024690B17B6B1844C7E90D428A
:101240000D4933462A4601F088FE002400F05EF97D
:10125000DBE7204602F056FA08B10246EEE700F05E
:1012600055F90C2401F000FD04604FF0FF34CCE789
:101270001624F7E7D40B002000B6000838B5174B4A
:101280001B689C68054600F033F90CB900241EE089
:101290002946204600F034FC01460028F6D02046BE
:1012A00000F04AFCD4E90D10002907DC18B102F067
:1012B00023FA0023A36300236363E7E702F028FA1D
:1012C00048B901F0D1FC0C2303604FF0FF3400F06B
:1012D0001DF9204638BDA063D8E700BFD40B00201D
:1012E00070B506464FF4C67002F01AFA0446E8B12B
:1012F000B06000F0CDFB051E06DA204602F0FCF9D6
:101300000023B360284670BD0122002104F11000C3
:1013100001F093FD083400221146204601F08DFDB6
:101320000021204601F0BBFD0025EBE76FF00B0527
:10133000E8E78368B0F90C201A8001225A71002076
:10134000704738B58468054634B16379012B04D9F8
:10135000013B63710023AB6038BD204600F0F6F915
:10136000204600F065F804F1400006F007F9204639
:1013700001F09EFC204600F0B9FBA37923B123794C
:1013800043F008032371E5E7204602F0B5F9E1E7F1
:1013900038B504468068403006F0ECF80B4803216D
:1013A00006F05AFD051E0BD1012106F0EEF9284684
:1013B000022106F0EAF92046BDE8384000F0DCBB27
:1013C00001DD06F031FA6FF0160038BDD0B4000828
:1013D00070B50A4B85681E6840350446284606F0FD
:1013E000C9F8B0682946403006F064F9002804DBEB
:1013F0002046BDE8704000F0BFBB70BDD40B00209C
:101400008268036C126A1A61704700000023064A62
:10141000064819460133622BC2E9000102F10802B5
:10142000F8D1FFF7F3BA00BF840C0020F10D0008DB
:1014300038B5044665692DB904F11000BDE838409F
:1014400000F096B8284650F80C3B636100F090F825
:1014500005F10A0000F08CF8284602F04DF9E9E7A2
:1014600038B5044600F044F80025236F1BB9BDE8E9
:10147000384000F04BB8EFF3108372B6206F02686B
:101480002267056013F0010F00D162B6037A43F0C2
:1014900002030372043000F0C7FBE6E738B50D46DF
:1014A0000446F8B1104B1BB1B0F90C00AFF300804B
:1014B000B4F90C3053B10D4A03F00F03002142F888
:1014C000331002EBC3034FF6FF729A80236C1BB1FB
:1014D0002946204602F028FE2046FFF732FF20462C
:1014E00002F00AF9002038BD00000000F40B0020D3
:1014F00010B5054B1C682CB102F0EAFD10B9E38B66
:101500000133E383002010BDD40B002070B5164DCD
:101510002C6824B302F0DCFD08BBEFF3108672B632
:10152000B4F91E30002B11DC0023E3830F4B1B6842
:10153000BBB9A38B03F06003202B0CD1636A53B9B2
:101540002B68A3421CBF1423636204E0013B9BB2DF
:10155000E383002BE8D016F0010F00D162B6002023
:1015600070BD02F0BDFDE4E7D40B0020740C002038
:1015700030B103881B0401D401230380002070478D
:101580006FF01500704710B5FFF7F2FF041E05DA83
:1015900001F06AFB644204604FF0FF34204610BD46
:1015A000F8B5164B17461D6806460C46FFF7A0FF18
:1015B0000FB1EB6C3B609CB1EFF3108272B6022E60
:1015C00012D0032E15D0012E15D1EB6C21680B43E0
:1015D000EB64002412F0010F00D162B600F01EF897
:1015E000FFF794FF2046F8BD2168EB6C23EA010366
:1015F000EEE72368ECE76FF01504EBE7D40B00206F
:1016000010B5FFF7CDFF041E05DA01F02DFB644293
:1016100004604FF0FF34204610BD00BF37B5174BB4
:101620001D68FFF765FF2846EC6C00F019FDE443E8
:101630000440019424B9FFF769FF204603B030BD90
:1016400001A800F05BF8431C044610D0014601A835
:1016500001F055FC2146284600F012F8044630B14E
:10166000011D284600F086F8204600F027F8019B6F
:10167000002BE5D1FFF74AFF0120DFE7D40B002064
:1016800038B58368EFF3108572B6DC6A002074B158
:1016900022798A4206D103F12C0130B9084601F0C3
:1016A00091FB04E020462468F1E701F095FB15F07A
:1016B000010F00D162B6204638BD000010B5037B93
:1016C00053B9EFF3108472B60A4901F047FB14F0E6
:1016D000010F00D162B610BD022B04D1EFF31084CC
:1016E00072B60549F1E7012BF5D1BDE8104002F0D3
:1016F00003B800BFB40F0020AC0F002038B505467A
:1017000001242146284601F013FC20B90134202C85
:10171000F7D14FF0FF34204638BD38B5044600F10C
:101720005405284601F04EFB50B904F15C052846EB
:1017300001F048FB38B94FF0FF32C4E9132038BD3F
:1017400000F0EAFCEDE700F0E7FCF0E738B504460E
:1017500000F12405284601F035FB28B92C34204639
:1017600001F030FB18B938BD00F016FCF2E7FFF7C6
:10177000A5FFF4E72DE9F0410D460978044601B3D1
:101780004C3001F0D5FB012880466DD1EFF3108677
:1017900072B6A37E062B16D1297804F1500001F011
:1017A000C7FB80B10822294604F1640001F01BFF49
:1017B00000232365204602F049FD16F0010F00D1F9
:1017C00062B600269FE016F0010F00D162B6A6684F
:1017D0002A78EFF3108372B6F06A10B10179914262
:1017E0000AD113F0010F00D162B638B108222946A0
:1017F000043001F0F8FEE4E70068EEE702F068FC70
:10180000E0B14C4801F0DEFA044628B94A4801F03C
:10181000D9FA04460028D4D008222946201D01F018
:10182000E2FEEFF3108572B606F12C01204601F0BE
:1018300095FA15F0010F00D162B6C2E7EFF31087F9
:1018400072B63C4801F0BEFA044617F0010F00D111
:1018500062B60028E0D1102001F054FF04460028B1
:10186000AFD001230373D7E7FFF742FE2978A068C2
:1018700000F01CFC064628B3406810B300F028FCBA
:101880000746002842D073684360B2688260F368FC
:101890009B0604D4297801238B40134383600822DC
:1018A000294607F10C0001F09EFEEFF3108672B698
:1018B00004F15401384601F051FA16F0010F00D13D
:1018C00062B60026FFF722FEEFF3108772B61B49BF
:1018D000204602F039FCA37E062B0AD108222946B5
:1018E00004F1640001F07FFE00232365204602F02E
:1018F000ADFC17F0010F00D162B6B8F1000F08D0AF
:1019000001DA6FF015063046BDE8F0816FF00B0686
:10191000D8E7A37E052B03D10421204600F0B4FABA
:10192000A37E073B012BEED80421204600F04DF9A1
:10193000E9E700BFB40F0020AC0F00205D190008DC
:1019400010B50C4600F07CF920B12146BDE81040EE
:10195000FFF710BF6FF0020010BD00BF2DE9F84F78
:10196000044600F1540800F15C06EFF3108772B6EC
:10197000B4F81CB01BF4807B1FFA87F905D019F06E
:10198000010F00D162B6BDE8F88F404601F01AFAA7
:1019900005460028F3D0A38B43F48073A38331461C
:1019A00001F0DCF9D4F84CA0AB684AEA0309C4F8AA
:1019B0004C9017F0010F00D162B66F68287B5A4631
:1019C00005F10C01B847EFF3108772B6A38BE26CF8
:1019D00023F48073A38382EA090982EA0A0303EAF3
:1019E000090383EA0A03E3643146284601F0D4F987
:1019F00017F0010F00D162B6FFF710FE284600F085
:101A00008BFBB2E770B5838B0E465905044617D49D
:101A10003AB9806828B14379012B02D1483001F0EE
:101A200057FD204600F025F8A56855B92046FFF778
:101A300088FC2046FFF771FEA38B43F48063A383E9
:101A400070BDA38B03F00303012B03D0EB680BB134
:101A500036021E606B79012BE8D10023EB60EB713D
:101A600005F108062B891B04E0D5304600F0B8F9D3
:101A7000F8E710B5044600F008F8204600F0F2F947
:101A80002046BDE8104000F090B8283000F0EABBD6
:101A90002DE9F041144BD3F800800746FFF728FDED
:101AA000D8F80830EBB19C6B7CB15D6B95B12846E2
:101AB00001F028FE064680B1D8F808302A46996B16
:101AC00001F091FD0024C7E90D56FFF71FFD2046E8
:101AD000BDE8F0812C462E46F5E76FF00B04054675
:101AE000F1E71C46F1E700BFD40B002010B5044617
:101AF000806B08B101F000FE0023C4E90D3310BD76
:101B000070B5D0E90D540E462544AC4212D2701E79
:101B1000611E10F8012F11F8013F9A42F9D01AB94D
:101B20003D2B01D1204670BD204601F047FD01301C
:101B30000444EAE70024F5E770B5D0E90D638B4271
:101B400005460C461E4414D88E4212D9084601F0B0
:101B500035FD0130631E0444321B002A04DC6B6B2C
:101B6000181A6863002070BD14F8012B03F8012FC8
:101B7000F2E74FF0FF30F6E710B50446806801F059
:101B800078F8002322460121184606F0A6FC2246DA
:101B900000230621012006F0A0FC00232246062196
:101BA000022006F09AFC002010BD837E072B04D192
:101BB000C26E538A013B53827047082B01BFC26E2D
:101BC000138A03F1FF331382704738B5EFF31084A3
:101BD00072B6827ED31F012B10D8C36E0025072A50
:101BE000C5660BBF5A8A1A8A02F1FF3202F1FF3230
:101BF0000CBF5A821A82018402F028FB14F0010FF4
:101C000000D162B638BD08B53AB119B900F034F860
:101C1000404208BD00F070F8FAE711B900F056F83C
:101C2000F6E700F06DF8F3E708B528B100F0D8F852
:101C3000002803DA404208BD1620FCE70020FAE73E
:101C4000002810B513DB00F00F02EFF3108172B61D
:101C5000084B03EBC204B4F9044084420CBF53F8B0
:101C60003200002011F0010F00D162B610BD00203B
:101C7000FCE700BFF40B002038B5134A1468EFF3FB
:101C8000108572B6E0B1028812B2002A028802F111
:101C9000FF3212B2028006DD0020A06415F0010FB1
:101CA00000D162B638BD0023A064238420460521FC
:101CB00002F05AF9B4F920000028EFD04042EDE7D5
:101CC0006FF01500EAE700BFD40B002010B5044602
:101CD0002046FFF7D1FF031DFAD010BD10B5FFF766
:101CE000CBFF041E06DA00F0BFFF644204604FF031
:101CF000FF3010BD0020FCE70A46002100F008B8C4
:101D00000A46002100F03EB80A46002100F046B81D
:101D10002DE9F341184B07461D688846164600F02A
:101D20000FFB044680B17268144B9A4221D801AA75
:101D30003146404600F0D6FA28B9019C002C07DC59
:101D40006FF0730400E04442204602B0BDE8F08129
:101D500000F002FA283503462146094A284600F0D9
:101D600009FA3846FFF788FF0446284600F07AFA59
:101D7000EAE76FF01504E7E7D40B0020FFC99A3BB0
:101D8000B91D000870B504460D4616463246294670
:101D90002046FFF7BDFF031DF8D070BD10B5FFF75B
:101DA000B7FF041E05DA00F05FFF644204604FF0E5
:101DB000FF34204610BD00BF10B5EFF3108472B69B
:101DC00000B2FFF73DFF28B1837E052B02D17421BD
:101DD00000F05AF814F0010F00D162B610BD0000F7
:101DE00010B50346002829D0EFF3108472B602889C
:101DF00047F6FF7112B28A4206D114F0010F00D1EA
:101E000062B66FF08A0010BD0288013212B2028001
:101E1000028812B2002A09DC0A4A106830B1826CCA
:101E20009A4209D10023836402F010FA14F0010FE2
:101E300000D162B60020E6E70068EFE76FF015001A
:101E4000E1E700BFCC0B002010B5FFF7C9FF041E6F
:101E500005DA00F009FF644204604FF0FF342046C9
:101E600010BD00BFEFF3108172B6837E052B06D143
:101E7000826C138801331BB213800023836411F03A
:101E8000010F00D162B6704738B5EFF3108572B616
:101E9000827E052A09D1846C2288013212B2228006
:101EA00000228264018402F0D1F915F0010F00D103
:101EB00062B638BDF8B5294B294E0024C3E9004469
:101EC000284BC3E90044284BC3E90044274B60205A
:101ED000C6E90044C3E9004401F014FC054648B1DA
:101EE00000F160072C7528463146183500F036FFA2
:101EF000AF42F7D1C02001F005FC044658B1194E9D
:101F000000F1C0050227277520463146183400F03D
:101F100025FFA542F7D1402001F0F4FB044658B15B
:101F2000114E00F14005002727732046314610343A
:101F300000F014FFA542F7D1802001F0E3FB044636
:101F400058B10A4E00F1800502272773204631461A
:101F5000103400F003FFA542F7D1F8BD940F002024
:101F60009C0F0020A40F0020B40F0020AC0F002015
:101F700070B5502001F0C6FB044648B1054E00F193
:101F8000500520463146143400F0E8FEAC42F8D14A
:101F900070BD00BF940F0020014900F0DFBE00BFFC
:101FA000940F00202DE9F041234B1B681F28D3F824
:101FB000088007460E46154638D80146404600F0D0
:101FC00075F8044635B1A0B143682B6083686B6037
:101FD000C368AB6056B135687DB93CB1204608F1A5
:101FE000240100F0D9FE2046FFF7D6FF0020BDE80F
:101FF000F081C5E90000A860ECE78CB90F4800F05B
:10200000E1FE044630B9FFF7B3FF0C4800F0DAFEFA
:10201000044670B1277408F12401204600F09EFEAA
:1020200065607368A360B368E360DFE76FF0150075
:10203000DDE76FF00B00DAE7D40B0020940F0020EF
:1020400010B50023FFF7AEFF041E06DA00F00CFE09
:10205000644204604FF0FF3010BD0020FCE700BF79
:1020600037B5002283680192EFF3108572B6DC6AFF
:1020700034B915F0010F00D162B6019803B030BD3C
:10208000217901A800F022FF2468F1E710B5064B82
:102090000446186824B1FFF7E3FF2060002010BD5C
:1020A0004FF0FF30FBE700BFD40B002038B50D46E2
:1020B000044640B1FFF71CFA646A14B1237CAB42BA
:1020C00003D1FFF723FA204638BD2468F5E7000066
:1020D00010B501F0FDFF40B10D4800F073FEA8B946
:1020E000BDE810400B4800F06DBEEFF3108472B6EF
:1020F000074800F067FE14F0010F00D162B628B95E
:10210000182001F0FFFA08B10123037510BD00BFCC
:102110009C0F0020A40F002010B5037D53B9EFF3EE
:10212000108472B60A4900F019FE14F0010F00D1B4
:1021300062B610BD022B04D1EFF3108472B60549CC
:10214000F1E7012BF5D1BDE8104001F0D5BA00BF91
:102150009C0F0020A40F0020054B186838B1837E27
:10216000032B02D1B0F90C0070476FF002007047EA
:10217000D40B00202DE9F0410D4690461E46044642
:1021800080B300292EDBEFF3108772B6037BDB07E9
:1021900001D500F067F8204926610E68C4F8048074
:1021A00001351EB9204600F0D9FD29E030463246FF
:1021B000002391685B1801D5116831B9AB4214DC7A
:1021C000116829B91449ED1AECE710460A46F0E700
:1021D0008868034410460A46F0E70F4A214600F09B
:1021E000CDFD0DE06FF0150014E091685B1AED1A5B
:1021F000491B96429160F0D10749204600F0B8FD96
:10220000237BA56043F00103237317F0010F00D176
:1022100062B60020BDE8F081BC0F002038B5104C3C
:10222000226852B19368013B002B936005DC254680
:10223000236813B19B68002B00DD38BD284600F0F1
:10224000C1FD23681BB19A6881680A449A60037BC8
:1022500023F001030373436800699847E8E700BF70
:10226000BC0F002038B50446EFF3108572B620B3DA
:10227000037BDB0721D5134B1B68002003B3A3426C
:1022800014D123681BB19A68A1680A449A6080B18E
:102290000C4900F0A1FD237B002023F00103206006
:1022A000237315F0010F00D162B638BD18461B68C4
:1022B000E4E7044800F086FDEDE76FF01500F0E775
:1022C0001B68FFDEBC0F002002680B689A4204D333
:1022D00006D840684B68C01A70474FF0FF3070470F
:1022E000012070477FB50E466946154600F05CF840
:1022F000044600BB69463046FFF7E6FF002805DAD2
:102300004FF0FF332B60204604B070BD019B706816
:10231000009AC01A336803909B1A0028029304DACB
:10232000064A013B024403920293294602A800F0A8
:1023300079F80446E7E71624E5E700BF00CA9A3BB0
:102340000D4B1968A8B1EFF3108272B603881BB267
:10235000002BC1BF038803F1FF331BB20380C6BF4C
:10236000002088646FF00A0012F0010F00D162B6FD
:1023700070476FF015007047D40B002010B5FFF7C1
:10238000DFFF041E05DA00F06FFC644204604FF0CA
:10239000FF34204610BD00BF024B0022C3E90022DB
:1023A000704700BFBC0F002037B50D46002830D164
:1023B000684600F053F8041E23D1EFF3108172B683
:1023C000154A009B1068526803440093019B134414
:1023D000019311F0010F00D162B6104B019A9A429D
:1023E00008DD0F48009992FBF0F3194400FB13231A
:1023F00000910193009B2B60019B6B60204603B012
:1024000030BDFBDA00F030FC644204604FF0FF3472
:10241000F4E76FF01504F5E7C40F0020FFC99A3BFD
:1024200000CA9A3B70B544680268094B0948E51731
:10243000E3FB02450E4620184FF00001064A4FF01C
:10244000000345EB010106F089FB3060002070BD00
:1024500000CA9A3B7F96980080969800D0B50D4BA5
:102460001E680A23A6FB036704464FF47A72002312
:102470003046394606F0C2FB394620604FF47A7286
:102480003046002306F0BAFB034BA2FB0323626035
:102490000020D0BD3C0B002040420F0010B50E22A2
:1024A0000446092140F2DE7001F0CEF8024B4343AE
:1024B00000202360606010BD8051010001F0F9BB75
:1024C000024A136801331360704700BF3C0B0020C1
:1024D00070B504460D46636A20469B6A98470028FB
:1024E000F9D0636A294620461B6ABDE87040184748
:1024F00070B583681C69636A1B690E461546984768
:1025000010F1190F1ED1B6F5427F24D040F20933E5
:102510009E4234D040F207339E4213D1EFF3108035
:1025200072B6A28B638B12B21BB29A420BDC638B26
:10253000A28B1BB212B29B1A10F0010F00D162B62F
:1025400000202B6070BDA28B618BB4F91E3012B2DB
:1025500009B2521AEFE7EFF3108072B6228AE389CC
:1025600012B21BB29A4203DCE389228A1BB2E1E772
:10257000228AE189B4F9123012B209B2E9E7EFF325
:10258000108072B6E289238A12B21BB29A4206DA2E
:10259000238AE2891BB212B29B1A013BCCE7E28983
:1025A000218AB4F9123012B209B2521AF4E72DE9B5
:1025B000F84FC589B0F912302DB2013504460F46E7
:1025C0009046AB42D8BF00254FF0010B00F1060941
:1025D000238A1BB2AB4208D0E38962691BB22DB2D9
:1025E000D7540020E581BDE8F88FB8F1000F21D065
:1025F000EFF3108A72B6238A1BB2AB4218D1636A1A
:1026000084F801B05B6A0121204698474846FFF7ED
:1026100033FB636A06465B6A0021204698471AF03E
:10262000010F00D162B6002ED2DA6FF00300DAE7B4
:102630000026F4E76FF00A00D5E72DE9F74F83682D
:1026400001921C6904F11808064640460D46FFF742
:1026500013FB071E0FDB00274FF0010A04F1080BE4
:10266000019B9F420BD3626A2046926901219047E9
:102670004046FFF7B5FB384603B0BDE8F08FA28BAC
:10268000618B10B209B281420DD0216A0132095C1E
:10269000B4F91E0012B29042D8BF0022A2830137C3
:1026A00005F8011BDCE7626A9269002FDBD1B36891
:1026B000002B33D0336813F0400732D1394620461F
:1026C0009047618BA28B09B212B2914220D1EFF3F5
:1026D000108972B6626A0121926920469047618B27
:1026E000A28B09B212B2914204D019F0010F00D1AD
:1026F00062B6B5E784F802A05846FFF7BDFA19F0B4
:10270000010F00D162B60028AADA6FF00307AAE72A
:10271000626A0121926920469047A1E76FF0500755
:10272000A1E76FF00A079EE72DE9F04183681E6973
:10273000351D2846FFF7A0FA041E18DB3378013355
:1027400013F0FF072BD0012F27D1EFF3108872B6BB
:10275000F3787BB9736A30461B689847041E09DA20
:1027600018F0010F00D162B62846FFF739FB20466A
:10277000BDE8F081736A30469B689847041E736A0F
:1027800003DA5B6830469847EAE79B6901213046E7
:10279000984718F0010F00D162B63770E4E76FF088
:1027A0001704E1E72DE9F3410F4600F12C0600F193
:1027B000340556F8044BB4B1237962793B40134396
:1027C000637183B1EFF3108872B6E06801A900F07D
:1027D0004FFB019B002B02DCE068FFF701FB18F0C8
:1027E000010F00D162B6AE42E3D102B0BDE8F08184
:1027F0002DE9F84383681C6904F10A0738460D4641
:102800009046FFF739FA061E0DDBB8F1000F4DD0E8
:10281000E36A63B1236B4BB100232B616FF00F06AA
:102820003846FFF7DDFA3046BDE8F883012303F1AF
:102830000A0204EB82020B3304EB830304F10C095C
:10284000556048462B61FFF741FAE389B4F912203D
:102850001BB201339A42D8BF0023228A12B29A4295
:1028600018BF95F80480484604F1180914BF08F011
:1028700004084FF00008FFF7B3FA4846FFF726FABE
:10288000628BA38B12B21BB29A421EBF2B7903F04C
:10289000010343EA08084846FFF7A2FAB8F1000F1F
:1028A000BED041462046FFF77DFFB9E72B69002BDC
:1028B000B6D0C3F80080C5F81080B1E72DE9F84F15
:1028C000836880461D690F46164601F001FC70B111
:1028D000EFF3108872B607EB0609B94524D118F05A
:1028E000010F00D162B634462046BDE8F88F06F0ED
:1028F00085FE81460028EBD105F10C0A5046FFF712
:10290000BBF9041EF0DBD8F8003083F040086B6A96
:1029100049465B6A28469847C8F38018B146B9F122
:10292000000F10D134461DE0EB7817F8014B2BB1A6
:102930000A2C03D10D212846FFF7CAFD214628465F
:10294000FFF7C6FDC9E7EB7817F801BBCBB94246E4
:1029500059462846FFF72BFE041E1DDAB14501D269
:10296000A6EB0904EA892B8A12B21BB29A4204D060
:102970006B6A01215B6A284698475046FFF730FA98
:10298000B2E7BBF10A0FE2D142460D212846FFF71C
:102990000EFE041EDBDAE1E709F1FF39BFE72DE99E
:1029A000F0410C4605460122002104F10C0000F024
:1029B00044FA0122002104F1180000F03EFA01223D
:1029C0000021201D00F039FAA71D002211463846CB
:1029D00000F033FA04F1080600221146304600F0F8
:1029E0002CFA0122002104F10A0000F026FA00214D
:1029F000384600F054FA0021304600F050FA2346E1
:102A000028460349BDE8F0414FF4DB7205F0CEBD26
:102A100008B6000810B504460121FFF7C3FEA378ED
:102A20003BB10023A37004F10800BDE81040FFF79C
:102A3000D7B910BD10B504460421FFF7B3FE637883
:102A400033B100236370A01DBDE81040FFF7C8B983
:102A500010BD10B500210446063006F067FE0021C7
:102A600004F1080006F062FE012104F10C0006F0FA
:102A70005DFE012104F1180006F058FE04F10A0081
:102A80000121BDE8104006F051BE2DE9F0478368F2
:102A90001C69261D05463046FFF718F92378012BDF
:102AA00007D9013B23703046FFF79AF90020BDE8B3
:102AB000F087636A002121709B69204698472D6842
:102AC00015F0400532D104F10C073846FFF7D4F871
:102AD00000282BDBEFF3108972B64FF0010A04F1E6
:102AE0000608E289238A12B21BB29A4211D0636AA5
:102AF00084F801A05B6A0121204698474046FFF711
:102B0000BBF8636A05465B6A002120469847002DA2
:102B1000E7DA19F0010F00D162B6194B002DD3F896
:102B200000801D4624DA3846FFF75AF9EFF3108586
:102B300072B6636A2046DB689847E3781BB9636A1C
:102B400020465B68984715F0010F00D162B6204619
:102B5000FFF760FF2046FFF77CFFA4E74FF47A7091
:102B600006F032FE2B68A3EB0803B3F5C87FDDD275
:102B7000636A2046DB6A98470028EFD0D3E700BF9E
:102B80003C0B0020F8B5002504462F46E289238A35
:102B900012B21BB29A42AEB210D1E289238A12B2AB
:102BA0001BB29A4204D1636A00215B6A20469847AF
:102BB000F6B12046BDE8F840FFF73CBF636A204607
:102BC0009B6A98470028E8D0238A6169626A1BB231
:102BD000126AC95C20469047238AB4F91220013357
:102BE0001BB29A42238205F10105D8BF2782CDE7A7
:102BF000F8BD2DE9F341458BB0F91E302DB20135FA
:102C00000446AB42D8BF002500261FFA86F8636A47
:102C10002046DB69984740B9B8F1000F02D0204642
:102C2000FFF7F8FE02B0BDE8F081A78B636A3FB200
:102C30005B6901A920469847AF42E8D0638B226ABE
:102C40001BB20136D0542BB26383B4F91E30013568
:102C5000AB42D8BF0025D8E70020704708B501F087
:102C600075F80120FEF7A1FA08B500F027FD143031
:102C700008BD38B5012204460021483000F0E8F8CC
:102C80004FF0FF350023C4E9613304F14C002565A2
:102C900000F032F804F1B400C4F8B85000F02CF899
:102CA000C4F8205104F58E70BDE8384000F024B817
:102CB00038B504464830FEF766FC0023C4F8883176
:102CC000D4F884516DB904F15400FEF75CFC04F1B2
:102CD000BC00FEF758FC04F59270BDE83840FEF7E2
:102CE00052BC284650F8083BC4F88431FEF74BFC30
:102CF000284600F001FDE3E710B50122044600215B
:102D0000083000F0A5F84FF6FF7363810023E360FD
:102D100010BD70B50446FFF71FFAB4F90A308342BC
:102D2000054609D004F108063046FEF7D7FF002813
:102D3000FADB6581012301E0E3680133E36070BDE4
:102D4000C368012B02DD013BC36070474FF6FF7380
:102D500043810023C3600830FFF776B80023036087
:102D60000B6813B90860486070474B681860FAE751
:102D70000B68036003B94860086070470346084663
:102D80001146126812B14A689A4201D1FFF7E6BFB4
:102D90001A680260186070470B6802468BB180B1F8
:102DA000834208D11A680A604A689A4209D100230E
:102DB0004B6070472BB118461B689342FAD100F064
:102DC0000BB870470346006828B102681A6002B960
:102DD0005A600023036070470A68034600685AB1CE
:102DE00050B14A68824214BF01684B604FF0000244
:102DF0000CBF1A60196002607047002343600B68C3
:102E0000036013B9C1E9000070475860086070475B
:102E1000D0E9003232B90B6033B94A600023C0E90F
:102E2000003370471360F7E75A60F7E708B50346C9
:102E3000084611469847FEF7B8F930B1B2F5004F91
:102E400003D212B20280002070476FF01500704765
:102E500008B530B1B2F5004F03D212B202800020A3
:102E600008BDFFF701FF162303604FF0FF30F7E7BF
:102E700028B121B103881BB20B60002070476FF0AE
:102E80001500704710B5FFF7F3FF041E05DAFFF7D2
:102E9000EBFE644204604FF0FF34204610BD08464C
:102EA00031B1481E022834BF6FF057006FF0150093
:102EB000704710B5FFF7F3FF041E05DAFFF7D4FEE5
:102EC000644204604FF0FF34204610BD1F299FBFAD
:102ED000012303FA01F103680B439ABF036000204A
:102EE0006FF01500704708B5FFF7F0FF002805DA0E
:102EF000FFF7BAFE162303604FF0FF3008BD1F290D
:102F00009FBF012303FA01F103688B439ABF03605B
:102F100000206FF01500704708B5FFF7F0FF00289C
:102F200005DAFFF7A1FE162303604FF0FF3008BD5E
:102F30001F299DBF0068C84000F001006FF0150018
:102F4000704708B5FFF7F4FF002805DAFFF78CFE9D
:102F5000162303604FF0FF3008BD0EB430B586B0C5
:102F600009AC014654F8045B01A86FF0004200F080
:102F700018F82246294601A8009400F023F806B06C
:102F8000BDE8304003B0704783680269934207D2BE
:102F9000C268D1548368C268013300218360D15470
:102FA0007047054B0360054B4360013A0023C0E9BD
:102FB000023102610B707047892F0008C12F000891
:102FC000002070472DE9F04F044689B09346002554
:102FD00091F800A0BAF1000F00F04982BAF1250F74
:102FE00008D04B1C00932368514620469847013572
:102FF000D846E4E091F801A08B1CBAF1250F0093AC
:10300000F1D04FF000094F464E460A223F2E50D8CD
:10301000BAF12B0F42D013D8BAF1200F40D0BAF139
:10302000230F43D0AAF13003DBB2092B53D8F005AC
:103030004EBF02FB093902FB073746F0800607E066
:10304000BAF12D0F2FD0BAF1300FEBD146F00106B7
:10305000009B13F801AB0093BAF1000FD6D10AF030
:10306000DF03A3F14502022A74D9BAF1630F7FD0BE
:10307000532B40F0B080D846BB4B58F804ABBAF1A4
:10308000000F08BF9A4616F4807F14BF49464FF0E0
:10309000FF31504600F09AFA814665E046F002069C
:1030A00046F00406D4E746F00806D1E746F01006DD
:1030B000CEE7B6F5007FB5D3BAF17A0F2AD0BAF1D0
:1030C000740F27D0BAF16A0F21D126F48066B6B208
:1030D00046F42066BCE7BAF12A0F0FD1F0055BF881
:1030E000043B02D523EAE379B2E7002BA7BF46F001
:1030F00080061F465F4246F08806A9E7BAF12E0F08
:10310000DAD1F00500F1B38146F48076A0E7BAF198
:103110006C0F09D1B30548BF46F4006626F48066FB
:10312000B6B246F4007693E7BAF1680F09D170059C
:1031300048BF46F4006626F40076B6B246F48066D0
:1031400086E7BAF1700F02BF26F42066B6B246F4E5
:10315000007684E70BF1070828F00708DFF80CA2D7
:1031600008F108084FF0070931071ED43E460EE06B
:10317000D8464FF0010958F8043B8DF808300DF19E
:10318000080AF1E72368202120469847013EB1450F
:10319000F8D3B945A7EB090394BF1A460022C3F13F
:1031A000000388BF002315441F440AEB0906B245FB
:1031B00008D14D443E46002E40F053813D440099D5
:1031C000C34605E723681AF8011B20469847002FDD
:1031D000EDD0013FEBE7BAF1640F06F4206302D0B3
:1031E000BAF1690F73D1B3F5206F60D10BF1070805
:1031F00028F00708F8E80201002826F4805B71F146
:1032000000032BF0100B06DA40424BF4805B61EBBD
:1032100041011FFA8BFB1BF4807F06D0B9F1000F30
:1032200003D150EA010300F0AF8002AE0A23324618
:1032300000F022F9861BF6B21BF4807F019600F0A5
:10324000A5802BF0010A4E451FFA8AFA80F2A18070
:1032500044F210020BEA0202102A5FFA89F303D14A
:103260002BF0110A1FFA8AFA1AF0100F00F09B8057
:1032700008AA324412F8192C302A40F08C802AF423
:10328000C04A2AF0100A1FFA8AFA1AF0080F40F012
:103290009B801AF0010F06D0BB4280F2B180A7EBF1
:1032A0000309B144FBB25B1B5FFA83FB87E0D8469E
:1032B000B20558F8043B18464FEAE3719CD47205F6
:1032C0009AD5320554BF18B258B2C11794E7B3F576
:1032D000206F1AD10BF1070828F00708F8E802015F
:1032E00026F0060BBAF1580F1FFA8BFB35D0AAF166
:1032F0006F03DAB2092A3BD8092B39D8DFE803F08B
:1033000042243838383814383826B305DBF8000042
:103310000BF1040801D50021E2E77105FBD5320568
:1033200054BF80B2C0B2F6E726F0160B1FFA8BFB33
:103330000A231BF4807F05D0B9F1000F02D150EAB7
:10334000010221D002AE72E74BF0100B1BF0100F00
:1033500001D04BF4804B1023EBE7F30601D54BF47F
:10336000C04B4FF40473E4E730B6000828B60008F9
:103370002368204625219847236851462046023578
:1033800098471CE70823D4E74E4655E73346DA460C
:103390006AE7334668E71AF4804F01D1013300E051
:1033A0000233DBB271E741F206021AEA020F3FF480
:1033B0006CAFF3E7236820212046013598470BEBDB
:1033C0000503DBB2BB42F5DBBB42B4BFFF1A0027EB
:1033D0001AF0100F21D023683021204698471AF4A4
:1033E000804F0FD10135CA46B24528DCA9EB060053
:1033F0004E45C8BF0020054446BB019B1D44D9E68D
:10340000B146E1E71AF4005F236805F1020514BF35
:103410005821782120469847E5E741F206031AEA49
:10342000030FE0D01AF0020F14BF2B2120211AF451
:10343000805F236805F1010518BF2D21EAE72368A5
:103440003021204698470AF1FF3ACDE7731E08AABB
:1034500052FA83F2DEB212F8181C2368204698470D
:10346000CAE72368202120469847013EA3E6284664
:1034700009B0BDE8F08F00BF2DE9F84F13F40079D3
:1034800018BF23F4007307468846164618BF4FF04E
:1034900001091C46DD173846414622462B4605F0F9
:1034A000ADFB092ABA46C3460746884609DC3032D6
:1034B000AB4508BFA24506F8012BECD23046BDE86B
:1034C000F88FB9F1000F01D03732F1E75732EFE74B
:1034D00070B50446C0B100F0FDF8D4F83C510026A8
:1034E00025B9204600F0FEF8304670BDB5F86030D2
:1034F0009B0707D50121284600F008F836EA200688
:1035000028BF06462D68EBE70646EDE7F8B54368A9
:10351000002B05460F463EDBB0F860309B073AD5DE
:10352000FFF7F7FB2C69FCB1AE69B44207D128461E
:10353000FFF706FCAC692969641A2046F8BDEB69FF
:103540009C4226D1361B68683246214604F0B8FFFB
:1035500000280DDA95F8623043F0020385F86230F6
:10356000FFF782FB046864422846FFF7E9FBE4E7C3
:103570000444361A0FB1002EE5DC2B69AB612644FA
:10358000B442D4D0AB695A1CAA6114F8012B1A704A
:10359000F6E70024E8E76FF00804CEE702440346AC
:1035A000934200D1704703F8011BF9E7421E11F85E
:1035B000013B02F8013F002BF9D1704703461A4640
:1035C000013311780029FAD1101A704710B502465C
:1035D00001448A42134601D1181A10BD1C780132E9
:1035E000002CF6D1F8E710B5431E0A44914200D1F1
:1035F00010BD11F8014B03F8014FF7E707B5064B73
:103600001B780341DB0703D5019201AA06F006FCF3
:1036100003B05DF804FB00BF540000200EB403B5F6
:1036200003AA52F8041B0192FFF7E8FF02B05DF80D
:1036300004EB03B0704700BF024B1A7818701046B5
:10364000704700BF5400002070B50E461546044672
:1036500000F01EF8C1B2304600F00EF8A4F2B273CA
:103660006A1E40F26D1101FB03226FF4F6631C44E5
:1036700002EBA404204470BD0346044A012B32F837
:10368000100001DD01B10130704700BF38B60008FD
:103690004FF4C87190FBF1F201FB120203465AB1DC
:1036A000642290FBF2F002FB103030B113F0030FF4
:1036B0000CBF012000207047012070471FB500207B
:1036C00001A905F0ADFF0028ACBF0298002005B0AD
:1036D0005DF804FB10B504462046FEF7FFFA00280B
:1036E000FADB10BDFEF7B0BB0A460146014800F008
:1036F0004EB800BFCC0F00200146014800F0ECB8E6
:10370000CC0F00200146014800F049B9CC0F002041
:103710000A460146014800F09CB900BFCC0F0020CA
:103720000146014800F06FBACC0F0020F8B50C46F6
:1037300005681746064600F07EF8E21904F10F030B
:10374000A96823F00F0322F00F02D01A0144C5E943
:1037500002131946082441F8084BEF684FF0004C5B
:103760001038C7F804C09860A2F108004C602861C6
:1037700042F8084C9B682A6943EA0C0330465360C0
:1037800000F082F83046BDE8F84000F06FB8F8B5B8
:103790000C46016001F5A4770021A160C4F8441132
:1037A0000546A2F5A47604F114004FF49872FFF7D1
:1037B000F5FE04F1240304F5A274A3F11002DA600B
:1037C00043F8083C1033A342F7D1284600F007F82D
:1037D000324639462846BDE8F840FFF7A7BF10B586
:1037E0000468012200212046FFF732FB4FF6FF73E9
:1037F00063800023636010BD38B50546FEF7ACFC5E
:10380000041E01DA204638BD2D68B5F90230A34206
:1038100004D16B6801336B600020F4E72846FEF7A3
:10382000ADFD002804DAFFF71FFA00684042EAE71E
:103830006C800123EFE738B50446FEF78DFC246861
:10384000B4F902308342054603D1636801336360F3
:1038500038BD2046FEF742FA002804DAFFF704FAE2
:103860000368042BF5D065800123F0E70068436806
:10387000012B02DD013B436070474FF6FF7343802D
:1038800000234360FEF7E0BA38B5056808680C46C7
:1038900000F015F805EB001205EB00151432EB698A
:1038A00023B1196811B12068814205D39460C4E93D
:1038B000023203B1DC6038BD1A469B68F0E7B0F510
:1038C000800F07D203090020012B00D87047013078
:1038D0005B08F9E71220704770B505460C4679B1D0
:1038E00000F0F6FB68B12B68EFF3108272B6D3F8E4
:1038F00044112160C3F8444112F0010F00D162B6B7
:1039000070BD2846FFF778FF40B10330EBD005F0DB
:1039100075FE0028E7D12846FFF78DFF54F8043CD8
:1039200023F0004344F8043C54F8083CA4F1080197
:10393000CA185068002813DBD2E90206CB58B060E1
:10394000134408B1D668C660126854F8080C1044D5
:1039500044F8080C5A6802F0004202435A601A46C2
:1039600054F8043CCB1A5868002810DBD3E9021045
:10397000816009B1D868C860196854F8080C084417
:103980001860516801F00041014351601946284612
:10399000FFF77AFF2846BDE87040FFF767BF2DE9C3
:1039A000F041064688460768EFF3108372B600229E
:1039B000D7F84441C7F8442113F0010F00D162B693
:1039C000002C3BD1B8F1000F35D008F1170525F0D8
:1039D0000F05A8452FD83046FFF72DFFB5F5800F0E
:1039E00033D22846FFF76BFF07EB0017FC69FCB1E9
:1039F0002268A368AA422AD3E2689360A3680BB145
:103A0000E268DA602368581B0F280CD961196051ED
:103A100023444D6025605A6802F0004202435A6018
:103A20003046FFF731FF636843F0004363600834BA
:103A30003046FFF71BFF2046BDE8F0812568214690
:103A40003046FFF749FF2C46BAE71220CCE71C4668
:103A5000CDE72DE9F84F804615460F4621B9BDE860
:103A6000F84F1146FFF79BBF12B9FFF735FF18E07B
:103A700002F1170323F00F0B5A4500F2BD80A1F1AC
:103A80000804FFF7D8FE57F8086CB3450CD804D2E9
:103A90005A462146404600F0C2F84046FFF7E6FE8F
:103AA0003D462846BDE8F88F57F8041C04EB060A8B
:103AB00021F00041611ADAF804304868002BACBFED
:103AC00054F806904FF000090028ACBF08680020A9
:103AD00009EB060303445B457CD3ABEB06030028EC
:103AE00053D0484502D9B9F1000F51D1984280F026
:103AF00085801D1A0346D1E902C2C2F808C0BCF194
:103B0000000F02D0CA68CCF80C209842A4EB030442
:103B100047D90A68D21A33440A6023600A6842F01F
:103B200000426260DAF8040000F000401843CAF86E
:103B300004004046FFF7A8FE04F1080BA6F10802B6
:103B400039465846FFF74FFD2668002D40D02B46DA
:103B50005F46DAE902120AEB0905916011B1DAF861
:103B60000C20CA601E44994526602BD9A9EB03039B
:103B7000A351A11922684A60686800F0004003431D
:103B80006B604046FFF780FE87E7B9F1000F84D0F5
:103B9000002B82D09945DCD2B3EB090310D04D46FF
:103BA000A9E72368F2186368226043F0004363606A
:103BB000DAF8043003F000431343CAF80430BBE7DB
:103BC0004B46C6E76B6803F0004333436B6064E722
:103BD0005F4662E74046FFF749FE29464046FFF749
:103BE000DEFE054600283FF45CAF39463246FFF75B
:103BF000FAFC3946404638E7002552E7002B3FF4EF
:103C00004CAF002577E738B50D46FFF7C8FE0446F0
:103C100018B12A460021FFF7C1FC204638BDF0B498
:103C20000C680D190B4669680029064619DBD5E9B1
:103C300002171859B960284409B1ED68CD601D68B4
:103C40001C59AD1A991825449D504A601A60446861
:103C50009B5804F000441C4344603046F0BCFFF71E
:103C600013BE02F110018C4209D39918A41A9C507A
:103C70004A601A609B5843F000436B60EEE7F0BC6B
:103C80007047000038B5054601200C46FCF786FF5A
:103C9000044B1B682B60C3F1005303F50033236012
:103CA00038BD00BFBCB4000808B505F027FD0020F2
:103CB00008BD08B50B4A0C49136823F07F4343F055
:103CC00000431360094B0A4A1A600F200022FDF7D7
:103CD00051F8084B07221A60BDE808400F20FCF796
:103CE000E1BE00BF20ED00E0A93C000814E000E0C8
:103CF000FFA50E0010E000E030BF7047F0B5114E98
:103D0000114F89B00D4620F01F04AC4201D309B019
:103D1000F0BDE3690793A36906936369059323697B
:103D20000493E3680393A368029363680193236891
:103D300000933246234639460020FFF76FFC2034BB
:103D4000E3E700BF22B8000852B600082DE9F043AF
:103D500089B00D4604460620FCF720FF06F0CEF899
:103D60006D4A6E49009523460020FFF757FC00F08E
:103D7000AFF9002800F0AC80694B6A4ED3F80080A0
:103D800034686D461CB96848674C00F0BDFAE36AB8
:103D9000226B616BA06BA768D4F80CC0D4F810E05C
:103DA000D4F814900092CDE905E9CDE9037CCDE982
:103DB00001105E4A5E490020FFF730FCA369E2690A
:103DC000216A606AE76BD4F800C0D4F840E0D4F808
:103DD00044900092CDE90110CDE905E9CDE9037CDD
:103DE000524A54490020FFF719FCA36C6268EFF3B4
:103DF00014810020CDE900214C4A4F49FFF70EFC09
:103E0000A36A4A4A4D490020FFF708FC2B46D8F820
:103E10004470D8F83C404A4ADFF8448149490020C0
:103E2000FFF7FCFB464A48490020FFF7F7FB444AEE
:103E3000464943460020FFF7F1FB414A44494FF40D
:103E400000630020FFF7EAFB454543D2A8F5006375
:103E50009D423FD941462846FFF750FF336833B1B2
:103E60001D68374A37492B460020FFF7D7FB344AF5
:103E700038490020FFF7D2FB314A34493B46002045
:103E8000FFF7CCFB23462E4A31490020FFF7C6FB43
:103E9000AF42A7EB040429D3A54227D939462846C7
:103EA000FFF72CFF06F02AF806F028F833682BB34A
:103EB000EFF3108372B60720FCF770FEFA2000F0D3
:103EC0000DFA0720FCF778FEFA2000F007FAF2E777
:103ED000214B52E73368002BC0D02049184A0020FC
:103EE000FFF79CFB1E49A1F50060B5E71D49144A88
:103EF0000020FFF793FB39462046D1E700F0E8F8B1
:103F000038B1074B1B681B68002BD1D009B0BDE846
:103F1000F083114BF6E700BF2FB8000885B6000804
:103F2000800C0020C00B0020400B002039B8000896
:103F3000AFB60008E0B6000811B700083DB70008AA
:103F400049B8000853B7000865B7000875B70008FE
:103F500087B70008D5B70008D40B002099B7000830
:103F6000600A0020E6B700082DE9F041164D07462B
:103F700088462E6805F0F0F941460446384605F0BB
:103F80004FFA124B1B681BB105F01EFA0443E4B252
:103F900064B10F4F3968843651B1304600F01AF8D9
:103FA0002C682046843405F0A5FB3C60BDE8F08118
:103FB0002D68284605F09EFB05F184013046BDE8DA
:103FC000F04100F0B0B900BFD40B0020740C002009
:103FD000C00B0020814208D0043801F14C0351F895
:103FE000042B40F8042F8B42F9D1704770B50D4671
:103FF0001F35036C25F0070504461146A5F1180688
:1040000093B92946082007F05FF82064206CA0B11E
:10401000054418220021E6636564FFF7BFFA032018
:10402000FCF7BCFD002070BDC36BB342EED000F0C6
:104030007BF8236C002BE9D1E3E74FF0FF30F2E788
:1040400008B5074C2368EFF3108372B605F0D2FB76
:104050002468204605F04EFB04F1840000F05EF970
:10406000D40B002008B5064B00221A6005F064FF4F
:10407000FCF714FCBDE808400220FCF78FBD00BF30
:10408000C00B002010B504467430B4F90C3043B9AD
:104090000E4B1B68A3F58062C4E910234FF48063C4
:1040A000E3635C220021FFF779FA636CC4F8843083
:1040B000236923F00103C4F8C8304FF08073C4F8BB
:1040C000CC306FF00603C4F8AC3010BDBCB40008AF
:1040D000024B1868003818BF01207047C00B002041
:1040E00070B50F4D2C6805F06FF960B10D4E316859
:1040F000843449B12046FFF76DFF2C682046843494
:1041000005F0F8FA346070BD2D68284605F0F2FA23
:1041100005F184012046BDE8704000F004B900BFFD
:10412000D40B0020C00B002010B50446006C38B141
:1041300006F0D2FF10B1206CFFF7DEFA00232364F3
:104140000023E36310BD000010B4426F0C46002A48
:1041500032D11A4A1268824219D1194B196811B921
:10416000234610BC184754674B6C93674B68D36762
:104170008B6CC2F88030134B4B6401234B604FF0C3
:1041800080738B6410BC02F18400FFF723BFD0F86A
:10419000C8208267D0F88820C267D0F8CC20C0F849
:1041A0008020084AC0F8C8200122C0F888204FF0BB
:1041B00080724167C0F8CC2010BC7047D40B00203F
:1041C000C00B0020C941000830B5154B95B01C68E4
:1041D000FEF74AFD05680520FCF7E0FC04F18401C8
:1041E00001A8FFF7F7FEF02383F3118862B6636F2F
:1041F00020469847EFF3108372B6FEF735FD056051
:10420000A36F1293E36F0293D4F8803013930023CB
:1042100005206367FCF7D0FC01A800F07FF800BF21
:10422000D40B002010B50246006C073121F00701C5
:1042300058B1D46B8C4281BF536C581A611A5064C8
:1042400086BFD163C2F88400002010BD70B5114D47
:1042500006462C6805F0F8F8304605F057F860B1CE
:104260000D4E3168843449B12046FFF7B3FE2C6807
:104270002046843405F03EFA346070BD2D6828462F
:1042800005F038FA05F184012046BDE8704000F0E1
:104290004AB800BFD40B0020C00B002070B5036CDF
:1042A00005460E46144623B1017F01F00301FFF7D6
:1042B0003BFF321922F0070206F118039A422E64DE
:1042C0006A6408D3D21AEA63002118223046FFF745
:1042D00065F9002070BD6FF00B00FBE782B0002392
:1042E000009342F23211009A824201D302B0704729
:1042F0000193019A8A4203D9009A01320092F2E7AF
:10430000019A01320192F4E701464FF0000000DF0C
:1043100001F12C024FF001031360704701464FF08A
:10432000010000DF70470A4601464FF0020000DF3F
:104330007047000037B504460D46002001A905F07E
:104340002FF9019B642B05D0642301A90020019360
:1043500005F0B2F800F012F82946204600F00FF8F8
:10436000044605F07FF804492246D43006F05CFA92
:10437000012003B030BD00BF56B80008704770B5CB
:104380000E46054600F0E2F8334601212A4604466F
:1043900000F020F9636A01462046984700F51A703C
:1043A000704770B504460E461546B2B1D0F860327B
:1043B0003BB1D0F8640206F0BBF9D4F8600206F015
:1043C000B7F9D4F85C322B60D4F858326B60D4F86B
:1043D0006432AB60D4F86032EB600023C4F85862FA
:1043E000C4F8603270BD38B50446D0F8605205F0AC
:1043F00039F86C30854208D105F034F86C3006F09D
:1044000097F90123C4F8583238BDD4F8600268B176
:1044100006F08EF9D4F8600206F01FF84FF0FF3373
:10442000C4E996330023C4E99833EDE7D4F8580281
:104430000028F3DB0128F1D003F01DFAEEE738B5D0
:104440000D460446FFF7CFFF2B68C4F85C326B685B
:10445000C4F85832AB68C4F86432EB68C4F8603210
:1044600038BD10B50446FFF7BEFF2046BDE810403A
:10447000FFF742B90C4608B5FFF7F3FF2046FCF7FB
:1044800094FE10B509490446D0F8580205F0A9FF7A
:10449000C4F8600238B1D4F85832C4F86402C4F8E1
:1044A0005C32002010BD4FF0FF30FBE7BFC20008B8
:1044B00070B5D0F8603204460D4616466BB12846FA
:1044C000D4F860323246012106F0CCF80546D4F823
:1044D000600206F02DF9284670BDFFF7D2FF0028D4
:1044E000EDD04FF0FF35F6E70EB417B5D0F86032D7
:1044F00004465BB106AA0599D4F86402019206F05D
:10450000A0F903B0BDE8104003B07047FFF7B9FF52
:104510000028EFD04FF0FF30F3E70EB417B5D0F816
:10452000603204465BB106AA0599D4F86002019294
:1045300006F087F903B0BDE8104003B07047FFF7FD
:10454000A0FF0028EFD04FF0FF30F3E710B54FF495
:104550002A70FFF7E5F8044618B3134B0360134BBA
:104560008360134BC360134B4361134B0361134BC5
:10457000134A8361134B4362C2610223124A80F8DB
:104580002B320262C0F85C3204F06CFF0123D4309D
:10459000C4F86402C4F8583204F064FF6C30C4F804
:1045A0006002204610BD00BFCD45000863440008EE
:1045B000B14400081B450008E94400089D43000879
:1045C000A3430008754400083F44000808B5FFF7FE
:1045D000BDFF08BDF7B5044616461D4641B1D0F8EB
:1045E0006012324806F0F2F8D4F8600206F0A0F843
:1045F000012E32DC2E4F04F51A76D4F860123846BC
:1046000006F0E4F8D4F8600206F092F804F02AFF0D
:10461000054604F027FF2A1D00F16C0340213046B7
:1046200000F082F801300FD1D4F86442FEF71CFB91
:10463000036800931F4A204B2049204606F0F4F8F7
:104640000025284603B0F0BD3146204600F0C4FDE9
:10465000D4F8600206F06CF8CFE71949686806F0F4
:1046600056FA38B963692A681649204603B0BDE88E
:10467000F04018471449686806F049FA38B1D5E99E
:104680000012204603B0BDE8F04000F001BE022E4B
:1046900009D0A968204600F09FFD0546D4F86002C5
:1046A00006F046F8CDE70125CBE700BFC6BA000803
:1046B000C0BA000886B800087DB80008A5B900088F
:1046C00092B8000895B80008BDB80008006903F06A
:1046D000F7BE13B504468DF80710206901220DF1CD
:1046E000070103F0EDFE002803DAFEF7BDFA0368C8
:1046F000042BF2D002B010BD13B50446E0680122CD
:104700000DF1070103F0EDFB002803D14FF0FF305E
:1047100002B010BD05DAFEF7A7FA0368042BEDD04E
:10472000F4E79DF80700F3E710B586B052680492ED
:10473000074A0292074A5B680392074C01940A46B3
:10474000014601A8059300F009F806B010BD00BFAE
:10475000D3460008CD460008F9460008012A2DE995
:10476000F84F06460F46904604DC00240C702046A5
:10477000BDE8F88F83682D49DFF8B0900322984791
:104780000025AA46336830469847431C04460DD19D
:10479000002DECD000237B552C46E8E74FF0000AB3
:1047A000F0E74FF0010AEDE75D46EBE7BAF1000FE5
:1047B00009D05B28F2D1BAF1020F0CBF4FF0000A0A
:1047C0004FF0020ADEE7082801D07F280CD1002D27
:1047D000E4D07368304608219847B36803224946FD
:1047E0003046013D9847CDE71B28DAD00A2808D18A
:1047F0006C1C0A21002379553B5530467368984755
:10480000B5E70D28F4D0C0B205F00AFC0028B9D1F4
:104810007C5505F1010B73682146304602359847F7
:104820004545C1DB07F80BA05C46A0E7C0B800080F
:1048300090F83B3200EBC303024693F840329909EB
:10484000032902D113F001000CD092F83C0202447B
:1048500092F83D0283070BD48309022B04D0032B6B
:1048600003D00120C0B27047C04300F00100F9E757
:104870000020F7E770B5056895F82932044613B1B2
:10488000406802F0F8FFAB682846984704F10C0630
:104890000025A368AB4204DC2046BDE87040FEF76B
:1048A0002BBF56F8040BFEF727FF0135F1E738B5AB
:1048B00000F10C0281680446006800F00FFF054615
:1048C0002046FFF7D7FF284638BD10B590F83B22A9
:1048D000033200EBC202034692F828028009012845
:1048E0000BD1002083F82A0281F0010192F82832CE
:1048F00061F3000382F8283210BD022803D10020A2
:1049000083F82A02F2E793F83C221A4492F83D0217
:10491000800901280CD1002083F82A0292F83D3248
:10492000C3F38004614061F3000382F83D32E3E7A2
:1049300083F82A124842DFE72DE9F0472F4E0D6831
:1049400080460F4691462C4615F8011B19B923786D
:104950003BB91C4611E0304606F0CDF80028F2D1F4
:10496000F5E73E2B0CD163783E2B0BBF02340134AC
:104970003C603C600CBF224C224C2046BDE8F087D6
:10498000232B02D13C600024F7E7222B05BF013422
:10499000DFF880A0DFF864A04FF0000926463178E8
:1049A0003546013649B1504606F0A5F80028F6D044
:1049B0002B7813B100232B7035463D602378242BD0
:1049C000DBD1B9F1000F02D00123C9F80030013466
:1049D0000D49204606F09BF838B90C4C98F82A325D
:1049E000E01F002B08BF0446C7E7204604F080FA0A
:1049F000074C002818BF0446BFE700BF22B90008D3
:104A000028B900082BB9000830B900082DB90008F2
:104A10002FB900088DBE00082DE9F04F302299B063
:104A200004460D460DEB02000021FEF7B7FD002203
:104A3000A4F8282206A920460695FFF77DFF054623
:104A4000002800F0B780BE4906F061F8BD498146F4
:104A5000284606F05CF8B9F1000F02D0002840F0BB
:104A60008680002206A92046FFF766FF074608B1A8
:104A700003781BB923692A46B34925E094F83C82A0
:104A800004EB080393F83D329B09012B14D094F8F2
:104A90003B6204EBC60393F84032C3F38113033344
:104AA00003F00303012B07D9D4F8303223B1D4F833
:104AB00034A2BAF1000F02DA23692A4672E0012E0D
:104AC00017D92369A1492A462046984794F84032CD
:104AD00003F03E03002243F00103A4F83A2284F8D5
:104AE0004032C4F8442201212046FFF7EEFE06467C
:104AF000ADE00136B9F1000FF6B220460CBF01253A
:104B00000225FFF795FEF21C002304EBC20284F895
:104B10003A3284F83B6200F0010392F82802B4F8BC
:104B2000381243EA851304EBC60600F03E005144F8
:104B3000034382F828323D4686F84182C6F8441283
:104B40008349284605F0E3FF0746002840F0E1804E
:104B5000024606A92046FFF7EFFE054618B1037886
:104B6000002B40F08C802369794A7749AAE0794983
:104B7000284605F0CCFF0246F0B906A92046FFF70B
:104B8000DBFE94F83B32033304EBC303054693F892
:104B90002812C1F38112033202F00302012A03D961
:104BA00023696C4A6C498FE741F0C00183F82812F1
:104BB0000028C5D100261FE16849284605F0A7FF57
:104BC000064600284CD1024606A92046FFF7B4FE4F
:104BD00010B12369614A4FE794F83B12CB1C04EBF8
:104BE000C30393F828229009032802D023695B4A63
:104BF000D8E719B92369594A594965E7D1072AD530
:104C0000D3F82C12D4F83002324605F08AFC002882
:104C100009DA2569FEF728F8036800934F4A514BDB
:104C200051492046A847012384F83A3294F83B3290
:104C3000DA1C04EBC202013B92F828126FF38711D1
:104C400082F8281284F83B320023C4F82C32304614
:104C500019B0BDE8F08F42F0010283F82822E5E7A1
:104C600094F83B3204EBC30393F84032C3F381134F
:104C7000033303F00303012B3FF662AF1CE73B490C
:104C800005F045FF024660B906A92046FFF754FE2D
:104C9000054600283FF467AF0378002B3FF463AF6D
:104CA000012794F83C62A31993F83D329B09012B2C
:104CB00003D12369264A284904E0012E0BD9236930
:104CC000234A224920469847B4F83C3203F4605303
:104CD000A4F83C3207E70136F6B22046FFF7A8FDFC
:104CE00084F83C621036264400280CBF4222402241
:104CF00096F82D0242EA870200F03800024386F857
:104D00002D220023C4F82C32002D40F08480002690
:104D10009DE71749284605F0FAFE024680BB06A922
:104D20002046FFF709FE94F83C222244054692F8FB
:104D30003D32990901291DD023690D4ABBE700BF07
:104D4000C3B80008C9B8000832B9000871B9000832
:104D5000DDB80008CFB800084DB90008D2B8000887
:104D60008CB90008D7B80008A5B90008E0B8000859
:104D7000E2B80008022161F3871382F83D32C0E7F0
:104D8000AF49284605F0C3FE0246A0B906A9204651
:104D9000FFF7D2FD94F83C322344054693F83D22B8
:104DA0009109022902D02369A54A84E742F0C00292
:104DB00083F83D22A5E7A349284605F0A8FE06464C
:104DC000E8B9024606A92046FFF7B6FD10B12369EF
:104DD0009C4ACAE694F83C32E21892F83D227F2AB7
:104DE00002D82369974A66E71BB92369964A97490F
:104DF00068E7013B84F83C32C4F82C6227E794F85A
:104E00003C32234493F83D329B09012B7FF479AF68
:104E100023692A464FE78E49284605F078FE024668
:104E200090BB0A23C4F82C3206A92046FFF784FD64
:104E3000054600283FF46BAF864905F068FE06463C
:104E400010BB024606A92046FFF776FD0746D8B1FB
:104E5000324608A905F044FDC4F82C021430272876
:104E600004D8089B9F4201D01A782AB12369784A56
:104E700079492046984736E606A92046FFF75CFDAB
:104E8000054600283FF443AF2046FFF7D1FC002839
:104E90003FF43DAFDFF8DCA10C9501264FF000098F
:104EA00008AA06A92046CDF82090FFF745FD18ABCB
:104EB00003EB86034FEA860843F8300C18B3089BCF
:104EC000F3B10CAB984458F804BB5F461BF8011BC8
:104ED000B1B1504605F00FFE0028F6D03B7806F140
:104EE000010B6BB13E4606F8019B374616F8011BD5
:104EF000002962D1BBF10A0FC8F800705E46E2DDFE
:104F000001360A2ECCDD18AB03EB86030027012EF9
:104F100043F8307C77D006F1FF3818AB03EB8807F5
:104F20004E4957F8300C05F0F2FD00284BD1012313
:104F300084F8283247F8300CB8F1020F61DDA8F18F
:104F4000020618AB03EB8607454957F8300C05F00D
:104F5000DEFD002839D1012394F8297284F8293222
:104F600018AB03EB8808204658F8341C01F062FBAC
:104F70004FF026098046072E04DD236939492A4669
:104F8000204698470C99CDF8009043460CAA20463D
:104F900001F07AFF002839DB14BF012100212046EF
:104FA000FFF793FC0646B8F1000F3FF450AE4046C1
:104FB00001F094FB84F8297249E6504605F09BFD08
:104FC000002892D196E7B046B6E7274957F8300C4B
:104FD00005F09DFD80B9012394F8297284F82932E7
:104FE00018AB03EB8808204658F8341C01F022FB6C
:104FF0004FF016098046BEE700274646B946B84638
:10500000B9E746460027B946B846BBE794F82932C7
:1050100093B34FF4DB724946404602F02AFFB0F1E9
:10502000000A2BDA0C9E2569FDF71EFE036800932B
:105030000E490F4B32462046A8470121AFE700BF7B
:10504000E7B80008ECB80008DDB800088CB9000823
:10505000EFB80008F4B8000832B90008F7B8000843
:105060002BB90008BDB9000828B90008A5B9000887
:10507000E6BA000822B900084FF0FF3A94F8283247
:10508000002B7AD02368204698470546002800F078
:105090008F803C20FEF744FB8146002800F085808D
:1050A000C0E9005A866000EB86060DF1300B00F176
:1050B0000C030C365BF8040B039305F041FD039BD6
:1050C00043F8040BB342F5D194F8293223B1EB69CC
:1050D000002251462846984707A9002004F060FAAC
:1050E00070B10C9E2569FDF7BFFD03680093354B39
:1050F000324635492046A8474846FFF7BBFB9CE7A8
:10510000D4F82C0200280BD0079DA5EB00054FF02A
:1051100002001DDA05F04EF88542A8BF0546079546
:1051200008A805F01FF8022108A805F027F807A92C
:1051300008A805F02CF8254A4B4608A90DF11600E1
:1051400003F028FF50B12569214B0C9A0090D0E75D
:1051500005F032F88542B8BF0546E0E7BDF9160014
:1051600004F02EF8079B00936569BDF916300C9A80
:1051700018492046A847002111E794F8293223B1A5
:10518000E36908AA5146204698470CAA31462046B2
:1051900000F0A4FA94F8293205461BB1236A08A945
:1051A00020469847002DE6DA47E7AB68284698473F
:1051B00094F82932002B3FF440AF504602F05BFBDD
:1051C0003BE700BFF9B80008A5B90008AF480008E0
:1051D00007B9000816B900082DE9F8430027DFF8E1
:1051E000808080F83A7205460E460C468946A31B1D
:1051F000A5F838324146204605F094FC235C22187D
:105200001BB10A2B01D0232B04D149462846BDE807
:10521000F84301E43B2B02F101040CD1177049461D
:105220002846FFF7F9FB98B9A14695F83A32002BCA
:10523000DDD000200CE02221204605F05CFC48B9BE
:10524000054B2C6905491A462846A0474FF0FF3008
:10525000BDE8F883441CE8E78DBE0008DFB900080C
:10526000DAB9000890F83B32033300EBC30393F83C
:1052700028229209032A09D193F8292280F83C2296
:1052800093F828226FF3000283F828220020704749
:105290002DE9F04F0D4685B01146044601F0CAF9DC
:1052A0000390E8B1A369204698470746002865D0D7
:1052B00034490398D4F8308205F0AAF8C4F83002D3
:1052C00088B92769FDF7D0FC03682F4900932A4667
:1052D0002E4B2046B847039801F000FAC4F83082FC
:1052E0004FF0FF3546E0DFF8ACB0DFF8AC90DFF808
:1052F00098A04FF0FF3504F0B5F86C3005F018FABF
:10530000D4F8300205F02BF900239842C4F8340297
:10531000A4F838320ADA23691E46FDF7A5FC0368B3
:1053200000934A465B4651462046B047D4F83022A7
:105330004021384605F03AF998B194F82B329A0793
:1053400004D4636912493A462046984739462046B4
:10535000FFF742FF05460028CDD094F82B32DB073B
:10536000C9D4D4F8300205F078F8C4F83082039834
:1053700001F0B4F9284605B0BDE8F08F4FF0FF35D5
:10538000F5E700BFB9C20008A5B90008E5BA0008F2
:105390005EC30008EBBA0008F1BA000808B503497B
:1053A0000369126898474FF0FF3008BD49BA0008FA
:1053B000002070474FF0FF30704708B50021436A66
:1053C000984710B4CB6844690A681BB1A4460349E6
:1053D00010BC60472346024910BC1847F6BA0008C3
:1053E000FFBA0008F8B50F4F04460E46386838B9C2
:1053F00023690D493246204698474FF0FF350DE0AE
:10540000314605F084FB054650B9084963693246C8
:105410002046984739462046FFF7D3FF2846F8BD77
:105420001037E3E7ECBE000849BA000805BB0008E6
:1054300001292DE9F74F04460E46174640F3D08068
:105440009149506805F063FB0546002800F015817E
:105450000122002357F82250002B00F0BF8063691F
:105460008A49204698476369894920469847636975
:105470008849204698476369874920469847636969
:10548000864920469847636985492046984763695D
:105490008449204698476369814920469847636953
:1054A00081492046984763697A492046984763694D
:1054B0007E492046984763697D492046984763693D
:1054C00077492046984763697A4920469847636937
:1054D0007049204698476369774920469847636931
:1054E00073492046984763696D4920469847636928
:1054F0007049204698473DB129462046FFF772FF84
:10550000002003B0BDE8F08F63696C496C4D204604
:10551000984729462046FFF754FF55F8103F002BC7
:10552000F7D100273E463D46384604F06BFD002883
:1055300034D1002DE4D00236502E636961492046F3
:1055400096BF50270127B7FBF6F79847013D4FF06C
:1055500000083D44B5FBF7F54545D1D063695A498C
:1055600020469847C1464FF0000A484604F04AFDDD
:10557000834638B1DBF80C30E3B90AF1010A57452C
:10558000A944F2D1636951492046984708F10108BE
:10559000E2E74F492046904701375FE0C3683BB1DF
:1055A0000068FEF70BF8864205F1010538BF064694
:1055B0000137B9E7DBF80020636946492046984780
:1055C000DBF80000FDF7FAFF83465E45D5D9636935
:1055D0003F49204698470BF1010BF6E7002D8BD190
:1055E0003D49374F2046FFF7FDFE636937492046A6
:1055F000984700252E4633010136D859FDF7DEFFC6
:10560000854238BF0546252EF5D10235502D94BF71
:10561000502601264FF0000898BFB6FBF5F606F1BC
:105620002409B9FBF6F9C1453FF47BAF636926490C
:1056300020469847C2464FF0000BBAF1240F676925
:1056400014D81F4B23494FEA0A1220469A58019258
:10565000B847019A1046FDF7B1FF0746BD4262699F
:1056600097D80BF1010B5E45CA44E6D1636917492F
:105670002046984708F10108D5E7022E3FF4EFAE27
:1056800002220123E6E600BF0FBB000812BB0008A0
:1056900026BB000861BB000865BB000871BB0008A1
:1056A00079BB000892BB00089ABB0008A1BB0008A8
:1056B000B0BB0008B6BB0008BFBB0008CEBB0008EB
:1056C000ECBE0008EBBB000872C200085FBB00081C
:1056D00073C200085EC30008E6BB00082DE9F04174
:1056E000144DD2F8008004460E461746286808B9C3
:1056F000114B17E0414605F00AFAC8B92B7AB342BC
:1057000008DD23690D494246204698474FF0FF3097
:10571000BDE8F0816B7AB34203DA23690849424657
:10572000F2E76B683A4631462046BDE8F04118473B
:105730001035DBE7ECBE00089D53000882BA000874
:10574000BDB90008F7B50D4604461049284616466F
:1057500005F0DDF904F1280778B90D4A33464FF416
:105760000071384604F097FD0023384684F828314C
:1057700003B0BDE8F04005F0E3B9064A00962B46B9
:105780004FF40071384604F086FDEDE7D8B5000807
:105790004EC100084CC1000810B50749044605F089
:1057A000B6F938B10549204605F0B1F9B0FA80F0F4
:1057B000400910BD0120FCE753C1000852C1000898
:1057C0002DE9F0439E0793B00546884614461F46D0
:1057D0006FD0DAB10132FFF7B5FF05A9814602F0BB
:1057E000B8FD06464846FDF787FFAEB12C69FDF7C8
:1057F0003BFA03680093484A484B49492846A0476A
:105800004FF0FF34204613B0BDE8F08305A94046B1
:1058100002F09FFD0646E8E7BA0743D5414B5968B9
:10582000186802AA03C219899B7A93701180069A9C
:1058300002F47043B3F5C04F4FD162238DF80830A6
:10584000D30544BF72238DF80930160644BF772371
:105850008DF80A30500644BF78238DF80B3091063E
:1058600044BF72238DF80C30D30644BF77238DF8E4
:105870000D30160744BF78238DF80E30500744BF13
:1058800072238DF80F30910744BF77238DF81030C5
:10589000D20744BF78238DF8113023496B6902AADF
:1058A00028469847FB0704D56B69099A1F49284683
:1058B00098476B695CB3661C1B493246284698477B
:1058C0002378042B1DD13046FFF766FF0446C0B98C
:1058D0006B6917492846984794E7B3F5005F01D1F3
:1058E0006323ABE7B3F5804F01D16423A6E7B3F59B
:1058F000A04F01D16D23A1E7B3F5004FA0D03F2306
:105900009CE76B690B492846984700247AE70A49C7
:1059100042462846984775E78CBD000855C10008E7
:10592000A5B9000861C100085DC300085AC100089C
:105930005EC100085FBB000800BB0008F7B51F464A
:105940001378042B05460E4603D00024204603B0EE
:10595000F0BD541C2046FFF71FFF0028F5D122465A
:1059600031462846FFF7EEFE6B690D4902460646B2
:10597000284698470B4B0C4900973246284601F0C1
:1059800023FA04460028E1D1084B07490097324624
:10599000284601F019FA04463046FDF7ADFED5E77A
:1059A0006CC10008C15700088CBD00083D590008B3
:1059B000F8B5064650680F46144604F045FB022F22
:1059C00005460FDDA768FDF7F9FD04463846FDF7EB
:1059D000F5FD241A002C05DD3946281905F097F845
:1059E00000B92855736903492A4630469847002074
:1059F000F8BD00BF01BB000810B50446506804F0B4
:105A000049FB63690249024620469847002010BDC1
:105A100001BB00082DE9F047DFF84C9005468846A9
:105A2000164600240127474500DA14B12046BDE898
:105A3000F08756F82710284600F0FCFD824640B952
:105A40002B6932684946284698474FF0FF340137A2
:105A5000E9E702463168284601F034F90446504629
:105A600000F03CFEF3E700BF18BA00082DE9F04F44
:105A7000516893B00446154600F0DCFD814650B9EC
:105A800023692A686849204698474FF0FF3738460F
:105A900013B0BDE8F08F012102F0EBF9031E029371
:105AA00010DA26692D68FDF7DFF8036800935F4977
:105AB0005F4B2A462046B0474FF0FF37484600F07C
:105AC0000DFEE4E7A968204600F0B4FD064650B993
:105AD00023692A685449204698474FF0FF370298B7
